:100000000C942A000C9447000C9447000C94470071
:100010000C9447000C9447000C9447000C94470044
:100020000C9447000C9447000C9447000C94120267
:100030000C9447000C9447000C9447000C94470024
:100040000C9447000C9447000C9447000C94470014
:100050000C94470011241FBECFE5D4E0DEBFCDBF16
:1000600010E0A8E6B0E001C01D92A637B107E1F7A5
:1000700010E0A0E6B0E0ECE3F5E102C005900D92DF
:10008000A836B107D9F70E943C020C949C0A0C9444
:100090000000DF93CF93CDB7DEB7E6E5F0E084EA6A
:1000A0008083E6E5F0E080818823DCF7CF91DF9163
:1000B0000895DF93CF930F92CDB7DEB78983E3E244
:1000C000F0E089818083E6E5F0E084E88083E6E57E
:1000D000F0E080818823DCF70F90CF91DF910895C5
:1000E000DF93CF930F92CDB7DEB7898380916800FD
:1000F0008F3F29F4809169008F5F809369000E948F
:10010000490080EA0E945900809169000E945900CC
:10011000809168000E94590089810E945900809155
:1001200068008F5F80936800E6E5F0E084E98083F3
:10013000E8E3F0E0898180830F90CF91DF9108950B
:10014000DF93CF93CDB7DEB72F970FB6F894DEBF0E
:100150000FBECDBF80916B008F3F29F480916A0064
:100160008F5F80936A0080E090E0A0E4B0E48B872A
:100170009C87AD87BE876B857C858D859E8520E0BD
:1001800030E04AEF54E40E94E106DC01CB018F83AA
:100190009887A987BA876F81788589859A8520E0B5
:1001A00030E040E85FE30E943B0888232CF481E0C4
:1001B00090E09E838D833FC06F81788589859A8585
:1001C00020E03FEF4FE757E40E94DB0718164CF59D
:1001D0006B857C858D859E8520E030E040E251E492
:1001E0000E94E106DC01CB01BC01CD010E940B05A0
:1001F000DC01CB019E838D830FC088EC90E09C8353
:100200008B838B819C810197F1F79C838B838D81FC
:100210009E8101979E838D838D819E81009769F7D2
:1002200014C06F81788589859A850E940B05DC0151
:10023000CB019E838D838D819E819A838983898161
:100240009A810197F1F79A8389830E94490080EA95
:100250000E94590080916A000E94590080916B00B1
:100260000E9459000E9449000E94A2018F8780913C
:100270006C0090916D00282F80916E0090916F001E
:10028000982F822F692F4F850E94D80480916C008F
:1002900090916D00282F80916E0090916F00982FA3
:1002A000822F692F4F850E94D80480916C00909115
:1002B0006D00282F80916E0090916F00982F822FF3
:1002C000692F4F850E94D804E8E3F0E08F85808392
:1002D00080916E0090916F008438910569F480914F
:1002E0006C0090916D00019690936D0080936C006E
:1002F00010926F0010926E0080916C0090916D00D2
:100300008438910521F410926D0010926C00809158
:100310006E0090916F00019690936F0080936E0035
:1003200080916B008F5F80936B00E6E5F0E084E9DD
:1003300080832F960FB6F894DEBF0FBECDBFCF914E
:10034000DF910895DF93CF930F92CDB7DEB781EAA7
:100350000E945900E6E5F0E084E88083E6E5F0E0FD
:1003600080818823DCF7E3E2F0E080818983898162
:100370000F90CF91DF910895DF93CF9300D00F922C
:10038000CDB7DEB7809170008F5F80937000809151
:100390007000282F30E03B832A838A819B81823042
:1003A000910589F02A813B8123303105B1F08A81A2
:1003B0009B8181309105D1F4ECE2F0E08081807E78
:1003C0008093730013C0ECE2F0E0808186958695FF
:1003D00086958C718093740009C0ECE2F0E0808116
:1003E00082958695869583708093750080917000C4
:1003F000833091F49091730080917400982B8091D8
:100400007500892B8983E8E3F0E08981808310926D
:10041000700089810E9470000F900F900F90CF9113
:10042000DF9108951F920F920FB60F9211242F9310
:100430003F934F935F936F937F938F939F93AF936C
:10044000BF93EF93FF93DF93CF93CDB7DEB70E94B7
:10045000BC01CF91DF91FF91EF91BF91AF919F913F
:100460008F917F916F915F914F913F912F910F905D
:100470000FBE0F901F901895DF93CF93CDB7DEB7C7
:1004800062970FB6F894DEBF0FBECDBF1A8A198AE5
:10049000188A1F86E7E3F0E08FEF8083E1E3F0E066
:1004A00082E08083E2E3F0E081E08083E0E4F0E05A
:1004B0001082E9E2F0E08DE48083AAE2B0E0EAE2B3
:1004C000F0E0808180698C93E0E4F0E08EEB808343
:1004D000E0E2F0E084E08083E1E2F0E010820E945C
:1004E000ED020E94600380EE90E00E94970480E09D
:1004F00090E0A0E2B2E48B879C87AD87BE876B85D6
:100500007C858D859E8520E030E04AEF54E40E9492
:10051000E106DC01CB018F839887A987BA876F81B9
:10052000788589859A8520E030E040E85FE30E9485
:100530003B0888232CF481E090E09E838D833FC0AC
:100540006F81788589859A8520E03FEF4FE757E4F2
:100550000E94DB0718164CF56B857C858D859E8582
:1005600020E030E040E251E40E94E106DC01CB01F2
:10057000BC01CD010E940B05DC01CB019E838D8364
:100580000FC088EC90E09C838B838B819C810197CA
:10059000F1F79C838B838D819E8101979E838D8350
:1005A0008D819E81009769F714C06F817885898558
:1005B0009A850E940B05DC01CB019E838D838D8182
:1005C0009E819A83898389819A810197F1F79A8321
:1005D000898378940E94A000FDCFDF93CF93CDB79D
:1005E000DEB7EAE3F0E08CE38083CF91DF910895FA
:1005F000DF93CF93CDB7DEB728970FB6F894DEBF61
:100600000FBECDBF8B836C8380E88A83ABE3B0E001
:10061000EBE3F0E080818F7E8C938C81882349F01E
:10062000ABE3B0E0EBE3F0E0808188608C938C91E9
:1006300008C0ABE3B0E0EBE3F0E08081877F8C9310
:100640008C91ABE3B0E0EBE3F0E0808180618C93D0
:1006500019822AC0ABE3B0E0EBE3F0E080818F7E4B
:100660008C939B818A818923882349F0ABE3B0E096
:10067000EBE3F0E0808188608C938C9108C0ABE361
:10068000B0E0EBE3F0E08081877F8C938C91ABE36B
:10069000B0E0EBE3F0E0808180618C938A81869505
:1006A0008A8389818F5F89838981883098F228962F
:1006B0000FB6F894DEBF0FBECDBFCF91DF91089586
:1006C000DF93CF93CDB7DEB76C970FB6F894DEBF4C
:1006D0000FBECDBFABE3B0E0EBE3F0E080818F7EF7
:1006E0008C93ABE3B0E0EBE3F0E080818B7F8C9305
:1006F00080E090E0A0EAB1E4898F9A8FAB8FBC8F45
:10070000698D7A8D8B8D9C8D20E030E04AEF54E42A
:100710000E94E106DC01CB018D8B9E8BAF8BB88FE5
:100720006D897E898F89988D20E030E040E85FE315
:100730000E943B0888232CF481E090E09C8B8B8BFB
:100740003FC06D897E898F89988D20E03FEF4FE70C
:1007500057E40E94DB0718164CF5698D7A8D8B8D56
:100760009C8D20E030E040E251E40E94E106DC0193
:10077000CB01BC01CD010E940B05DC01CB019C8BA0
:100780008B8B0FC088EC90E09A8B898B89899A8932
:100790000197F1F79A8B898B8B899C8901979C8BA8
:1007A0008B8B8B899C89009769F714C06D897E8932
:1007B0008F89988D0E940B05DC01CB019C8B8B8B64
:1007C0008B899C89988B8F878F8598890197F1F702
:1007D000988B8F87ABE3B0E0EBE3F0E08081806142
:1007E0008C93ABE3B0E0EBE3F0E0808184608C932A
:1007F00081E160E00E94F80281E260E00E94F8027C
:100800008AE360E00E94F80283E061E00E94F8025F
:1008100085E260E00E94F80280E661E00E94F80252
:1008200086E360E00E94F80288EC61E00E94F80232
:1008300080E090E0A0EAB1E48B879C87AD87BE871B
:100840006B857C858D859E8520E030E04AEF54E401
:100850000E94E106DC01CB018F839887A987BA87C4
:100860006F81788589859A8520E030E040E85FE3F4
:100870000E943B0888232CF481E090E09E838D83C6
:100880003FC06F81788589859A8520E03FEF4FE7EB
:1008900057E40E94DB0718164CF56B857C858D8527
:1008A0009E8520E030E040E251E40E94E106DC0158
:1008B000CB01BC01CD010E940B05DC01CB019E8365
:1008C0008D830FC088EC90E09C838B838B819C810F
:1008D0000197F1F79C838B838D819E8101979E8385
:1008E0008D838D819E81009769F714C06F81788513
:1008F00089859A850E940B05DC01CB019E838D833F
:100900008D819E819A83898389819A810197F1F7EC
:100910009A83898389E260E00E94F8026C960FB6A0
:10092000F894DEBF0FBECDBFCF91DF910895DF9366
:10093000CF9300D000D0CDB7DEB79C838B838AE203
:1009400060E00E94F80280E061E00E94F80283E823
:1009500061E00E94F8028BE260E00E94F80280E011
:1009600061E00E94F80283E861E00E94F8028CE2F4
:1009700060E00E94F8021A8219820DC08B8161E04A
:100980000E94F8028B8161E00E94F80289819A81BD
:1009900001969A83898389819A8124E4813192071F
:1009A0006CF30F900F900F900F90CF91DF910895FF
:1009B000DF93CF9300D00F92CDB7DEB789836A83E0
:1009C0004B838AE260E00E94F802898161E00E9424
:1009D000F802898161E00E94F8028BE260E00E94E7
:1009E000F8028A8161E00E94F8028A8161E00E9437
:1009F000F8028CE260E00E94F8028B8161E00E94C4
:100A0000F8028B8161E00E94F8020F900F900F9026
:100A1000CF91DF910895EF92FF920F931F937B0187
:100A20008C0120E030E040E05FE40E940B08882366
:100A30008CF0C801B70120E030E040E05FE40E94A4
:100A400083060E946B089B01AC012050304040405F
:100A5000504806C0C801B7010E946B089B01AC0159
:100A6000B901CA011F910F91FF90EF900895A0E086
:100A7000B0E0EDE3F5E00C94650ADC012B01FA012E
:100A80009C91923008F439C1EB018881823008F4DE
:100A900033C1943069F4843009F02FC111969C91D0
:100AA00011978981981709F428C1A0E6B0E025C103
:100AB000843009F421C18230A9F4923009F01DC1BB
:100AC0009A01AD0188E0EA010990AE01E9010992BD
:100AD0009E018150C1F7E201898111969C91892381
:100AE000818308C1923009F407C112962D903C9081
:100AF0001397EB018A819B811496AD90BD90CD90A8
:100B0000DC901797EC80FD800E811F819101281BDE
:100B1000390BB90137FF04C066277727621B730BB7
:100B2000603271050CF061C0121613066CF53701C6
:100B30004801062E04C096948794779467940A948B
:100B4000D2F721E030E040E050E004C0220F331F34
:100B5000441F551F6A95D2F7215030404040504005
:100B60002E213F21402351232115310541055105F7
:100B700021F021E030E040E050E079018A01E628F0
:100B8000F728082919293CC0232BD1F1260E371E3E
:100B900035014601062E04C0969487947794679495
:100BA0000A94D2F721E030E040E050E004C0220F88
:100BB000331F441F551F6A95D2F7215030404040E3
:100BC00050402A213B214C215D2121153105410551
:100BD000510521F021E030E040E050E059016A0188
:100BE000A628B728C828D9280BC0821593052CF051
:100BF0001C01AA24BB24650103C0EE24FF24870145
:100C000011969C91D20111968C91981709F445C0C8
:100C1000992339F0A80197012A193B094C095D096C
:100C200006C0A60195012E193F09400B510B57FD37
:100C300008C01182338222822483358346835783FE
:100C40001DC081E081833382228288279927DC01BD
:100C5000821B930BA40BB50B84839583A683B78368
:100C60000DC0220F331F441F551F24833583468335
:100C70005783828193810197938382832481358175
:100C800046815781DA01C9010197A109B1098F5F36
:100C90009F4FAF4FBF4328F30BC091833382228213
:100CA000EA0CFB1C0C1D1D1DE482F58206831783D4
:100CB00083E08083248135814681578157FF1AC0A4
:100CC000C901AA2797FDA095BA2F81709070A070D6
:100CD000B0705695479537952795822B932BA42B6B
:100CE000B52B84839583A683B783828193810196F4
:100CF00093838283DF0101C0D201CD01CDB7DEB77E
:100D0000E2E10C94810AA0E2B0E0E9E8F6E00C949C
:100D1000710A69837A838B839C832D833E834F83FF
:100D20005887E9E0EE2EF12CEC0EFD1ECE01019667
:100D3000B7010E9494098E010F5E1F4FCE010596E8
:100D4000B8010E9494098A8991E089278A8BC7019A
:100D5000B801AE01475E5F4F0E9437050E94BF0891
:100D6000A096E6E00C948D0AA0E2B0E0EAEBF6E093
:100D70000C94710A69837A838B839C832D833E83D1
:100D80004F835887F9E0EF2EF12CEC0EFD1ECE01BB
:100D90000196B7010E9494098E010F5E1F4FCE018C
:100DA0000596B8010E949409C701B801AE01475EDB
:100DB0005F4F0E9437050E94BF08A096E6E00C94A2
:100DC0008D0AA0E2B0E0E7EEF6E00C94650A6983D4
:100DD0007A838B839C832D833E834F835887CE01F8
:100DE0000196BE01675F7F4F0E949409CE01059670
:100DF000BE016F5E7F4F0E9494099985923088F002
:100E000089898230C8F0943019F4823051F404C0DA
:100E1000843029F4923081F480E690E0C6C09230AC
:100E200049F420E09A858A89981321E02A87CE0127
:100E30000996BBC0823049F420E09A858A899813CC
:100E400021E02A8BCE014196B0C02D843E844F8490
:100E500058886D887E888F88988CEE24FF248701BF
:100E6000AA24BB24650140E050E060E070E0E0E0CF
:100E7000F0E0C10181709070892BE9F0E60CF71C5D
:100E8000081D191D9A01AB012A0D3B1D4C1D5D1D4E
:100E900080E090E0A0E0B0E0E614F7040805190552
:100EA00020F481E090E0A0E0B0E0BA01A901480F91
:100EB000591F6A1F7B1FAA0CBB1CCC1CDD1C97FE94
:100EC00008C081E090E0A0E0B0E0A82AB92ACA2AD0
:100ED000DB2A3196E032F10549F0660C771C881C5C
:100EE000991C5694479437942794C3CFFA85EA897E
:100EF0002B893C898B859C85280F391F2E5F3F4F9E
:100F000017C0CA0181709070892B61F01695079502
:100F1000F794E79480E090E0A0E0B0E8E82AF92AAE
:100F20000A2B1B2B76956795579547952F5F3F4F5B
:100F300077FDE7CF0CC0440F551F661F771F17FDC5
:100F40004160EE0CFF1C001F111F2150304040304B
:100F500090E0590790E0690790E4790760F32B8FE0
:100F60003C8FDB01CA018F779070A070B070803425
:100F70009105A105B10561F447FD0AC0E114F10432
:100F80000105110529F0405C5F4F6F4F7F4F40789E
:100F90001A8EFE1711F081E08A8F4D8F5E8F6F8F52
:100FA00078A383E0898FCE0149960E94BF08A0965E
:100FB000E2E10C94810AA8E1B0E0E1EEF7E00C94E4
:100FC000710A69837A838B839C832D833E834F834D
:100FD000588789E0E82EF12CEC0EFD1ECE0101961B
:100FE000B7010E9494098E010F5E1F4FCE01059636
:100FF000B8010E9494098985823040F08989823045
:1010000028F0C701B8010E940C0A01C08FEF689652
:10101000E6E00C948D0AA8E1B0E0E1E1F8E00C9480
:10102000710A69837A838B839C832D833E834F83EC
:10103000588789E0E82EF12CEC0EFD1ECE010196BA
:10104000B7010E9494098E010F5E1F4FCE010596D5
:10105000B8010E9494098985823040F089898230E4
:1010600028F0C701B8010E940C0A01C08FEF6896F2
:10107000E6E00C948D0AA8E1B0E0E1E4F8E00C941D
:10108000710A69837A838B839C832D833E834F838C
:10109000588789E0E82EF12CEC0EFD1ECE0101965A
:1010A000B7010E9494098E010F5E1F4FCE01059675
:1010B000B8010E9494098985823040F08989823084
:1010C00028F0C701B8010E940C0A01C081E06896AF
:1010D000E6E00C948D0AACE0B0E0E1E7F8E00C94B7
:1010E000750A69837A838B839C83CE010196BE0146
:1010F0006B5F7F4F0E9494098D81823061F1823055
:1011000050F1843021F48E81882351F12EC02F813B
:10111000388537FD20C06E812F3131051CF06623E4
:10112000F9F023C08EE190E0821B930B29853A856C
:101130004B855C8504C056954795379527958A95CC
:10114000D2F76623B1F050954095309521953F4FE9
:101150004F4F5F4F0EC020E030E040E050E009C04C
:101160002FEF3FEF4FEF5FE704C020E030E040E0BB
:1011700050E8B901CA012C96E2E00C94910ADF9282
:10118000EF92FF920F931F93FC01E480F58006819C
:101190001781D1808081823048F480E090E0A0E126
:1011A000B0E0E82AF92A0A2B1B2BA5C0843009F4E9
:1011B0009FC0823021F4EE24FF24870105C0E11492
:1011C000F1040105110519F4E0E0F0E096C0628138
:1011D00073819FEF623879070CF05BC022E83FEF24
:1011E000261B370B2A3131052CF020E030E040E09F
:1011F00050E02AC0B801A701022E04C07695679579
:10120000579547950A94D2F781E090E0A0E0B0E0CE
:1012100004C0880F991FAA1FBB1F2A95D2F70197F8
:10122000A109B1098E219F21A023B1230097A10517
:10123000B10521F081E090E0A0E0B0E09A01AB01BF
:10124000282B392B4A2B5B2BDA01C9018F77907041
:10125000A070B07080349105A105B10539F427FF65
:1012600009C0205C3F4F4F4F5F4F04C0215C3F4F90
:101270004F4F5F4FE0E0F0E02030A0E03A07A0E001
:101280004A07A0E45A0710F0E1E0F0E079018A0192
:1012900027C06038710564F5FB01E158FF4FD801A4
:1012A000C7018F779070A070B07080349105A10550
:1012B000B10539F4E7FE0DC080E490E0A0E0B0E0B5
:1012C00004C08FE390E0A0E0B0E0E80EF91E0A1F32
:1012D0001B1F17FF05C016950795F794E7943196E5
:1012E00087E016950795F794E7948A95D1F705C09E
:1012F000EE24FF248701EFEFF0E06E2F679566275D
:101300006795902F9F77D794DD24D7948E2F86955D
:10131000492F462B582F5D29B701CA011F910F9104
:10132000FF90EF90DF900895FC01DB014081518137
:101330002281622F6F7770E0221F2227221F938164
:10134000892F880F822B282F30E0991F9927991F0A
:1013500011969C93119721153105A9F54115510559
:101360006105710511F482E037C082E89FEF1396A2
:101370009C938E9312979A01AB0167E0220F331F63
:10138000441F551F6A95D1F783E08C930DC0220F3F
:10139000331F441F551F12968D919C9113970197EF
:1013A00013969C938E931297203080E0380780E04C
:1013B000480780E4580758F314962D933D934D93B6
:1013C0005C93179708952F3F310579F44115510526
:1013D0006105710519F484E08C93089564FF03C0DE
:1013E00081E08C9312C01C9210C02F57304013968E
:1013F0003C932E93129783E08C9387E0440F551F04
:10140000661F771F8A95D1F7706414964D935D938C
:101410006D937C93179708951F93DC01FB019C91BA
:10142000923008F447C08081823008F443C0943081
:1014300051F411961C91843099F58181682F70E0E8
:10144000611B71093FC0843021F0923031F4823049
:10145000B9F18181882389F12DC011961C911197D2
:101460008230F1F081811817D9F412962D913C91B8
:101470001397828193818217930794F02817390775
:10148000BCF014968D919D910D90BC91A02D24815E
:10149000358146815781281739074A075B0718F4B9
:1014A000112341F00AC082179307A407B50740F43F
:1014B000112319F061E070E005C06FEF7FEF02C00B
:1014C00060E070E0CB011F9108952F923F924F9200
:1014D0005F926F927F928F929F92AF92BF92CF92C4
:1014E000DF92EF92FF920F931F93CF93DF93CDB7CD
:1014F000DEB7CA1BDB0B0FB6F894DEBF0FBECDBF45
:1015000009942A88398848885F846E847D848C8415
:101510009B84AA84B984C884DF80EE80FD800C811E
:101520001B81AA81B981CE0FD11D0FB6F894DEBF01
:0C1530000FBECDBFED010895F894FFCF71
:08153C000000000000000000A7
:00000001FF
